:400000000040002011000000A9020000A902000008B500F04BF9C04638B51222204B1A6000F074FD1F4800F0CBFC012000F08EFD302000F0D5FC1C4A1C4B1A601C4C80257C
:40004000ED0525601B4A116802230B4313601A4A1A4B1A601A4A136808218B431360FA20C00000F01FFD174800F012FD164A174B1A60174A174B1A6080221206164B1A6067
:400080008022D202154B1A604022154B1A600820144900F0EBFC082000F0DCFC256038BD30001040001BB7000600008004010B400C020B4078002E402D3E00007C002E4032
:4000C0006CF02E40DC050000007FBB000003014040FF00800000014008010B4000010B401C010140650C000010B572B60022274B1A60002410E0264863001A195200821869
:4001000091881B195B001A5AC31858880004104300F044F90134E4B2012CECD91C49081C0C30103100F010F9EE221206194B1A60C0229204184B1A6099231B04174A13609E
:40014000174A136080225205164B1A60164B197802220A431A70154802783C218A4328390A430270197816220A431A70D82212040F4B1A6040220F4B1A60C02252030E4B7F
:400180001A60FFF749FF00F0F9F810BD6CF02E407C1E0100000002400002024000500F4020500F4028500F4000700F4001700F4008000440000204400802044010B5064C53
:4001C0002378002B07D1054B002B02D0044800E000BF0123237010BD800F002000000000781E010008B5084B002B03D00748084900E000BF07480368002B00D108BD064B46
:40020000002BFBD09847F9E700000000781E0100840F0020A80B00200000000008B562B6054800F049F9054800F014FA00F01EF901F082F8FCE7C0466D02000085020000FC
:4002400008B5012808D0002802D0022808D00BE0002000F0B9F807E0FA2000F0B5F803E0FA20400000F0B0F808BDC04608B5012801D0282805D1002000F070F90020FFF76E
:40028000DFFF08BD10B582B0D8235B00984209D16B46DC1D00200121221C00F027FA2078FFF7CEFF02B010BDFEE7C04670B50F4E0F4D13E029686B68AC68002202E001C983
:4002C00001C30432A242FAD1E868002202E0002102C304328242FAD11035013E002EE9D100F0B4FFFFF79AFFFEE7C046010000008021010008B50F4A136801218B43136036
:4003000000230AE0032B03D89A000B49505800E00A4899000A4A885001332F2BF2D9FFF7E3FE0022074B1A60024A116801230B43136008BD0000104000000000A902000092
:4003400000000020C0000020F0B50025002711E0BB00C658F3B2FF22964308E06A008A181478A419527822700135013BDBB2002BF4D10137002FEBD0F0BDC0460323044A52
:400380001360044A13600022034B1A607047C0463000304030003140000E3F4008B50A1C002100F091FF08BD0004000C014B18607047C046080120400004000C014B18607D
:4003C0007047C046140120400004000C014B18607047C0460C01204038B5041C0D1C00F0F8FAAC40024B1C6000F0F7FA38BDC0460800204008B500F0ECFA064A116801233C
:400400000B43136000F0E9FA01201821FFF7E4FF08BDC04600002040014B18607047C0463801204010B50E4C8023DB042360236823600020FFF7B8FF236823600C22094B21
:400440001A600120FFF7E8FF3122074B1A60FA204000FFF7B1FFFA20FFF7B6FF10BDC04600012040240120402801204008B5064B1B78002B04D1FFF7D5FF0122024B1A7079
:40048000FFF7B8FF08BDC0469C0F002008B500F0DFF808BD08B50023044A1370044A1370044A1370FFF7F2FF08BDC046D3200020CC200020D220002010B590B0041C0BA8A2
:4004C0001F49142200F0F7FE1E4B1B78002B04D1FFF7E0FF01221B4B1A70002C2CD01A4B1C6008A805AA426006AB0893002101811B3119805980173919710023137012311B
:40050000694400F0EFFF002817D1052300930023019302930D480E49AE2212010BAB00F03DFF002809D101220A4B1A700A48102108320CF0DFFD00E0012010B010BDC0467B
:40054000941E01009D0F0020C420002099070000C8000020CA200020A81E010008B5022832D81D4B1B78042B30D11C4B1B785B072FD400280BD11A4B1A1C40321E21118241
:400580002022596C0A805B6C04325A800EE001280CD1134B1A1C403296211182C822D200596C0A805B6C8022D2015A800D4B18700B4840300AF0DAFE00280CD1074A11781A
:4005C00004230B43137006E0012004E00420FF3001E00420FF3008BDCA200020D3200020AC0B0020D22000207047C04603784078000218437047C04638B583890D2B20D19A
:40060000041C04300021221C33330CF0C1FD051E11D16068FFF7EAFF830706D50A4B1B6882204000211C984705E0074B1B680620FF30211C9847054A137801218B43137088
:4006400000E00025281C38BDC4200020D32000207047C046014B18607047C046A00F002000B585B00F236B4400221A70103269460A81009301238B8068460021002200234F
:400680000CF086FD05B000BD10B582B0154B1B68002B24D08389102B21D10389012B1ED143681B78022B1AD8041C04300021221C40230CF06DFD002811D123886A4613809F
:4006C00000239370201D0190064B1B68D820400069469847044A137801218B43137002B010BDC046A00F0020D320002000B585B0002A10D0002810D1012910D101A81023D5
:40070000038181800192002100220CF00BFD002807D0012006E0012004E0012002E0012000E0002005B000BD08B5034B00225A701A70FFF795FF08BDD020002010B582B0E2
:40074000041CFFF759FF0A4B1B78DB070ED4002809D001A912238B70A3890B80C87020680BF026FF02E020680BF0A4FF02B010BDD32000208379002B07D000200BE0C25C2C
:40078000002A07D10133DBB200E00023052BF6D9002000E001207047F0B583B0051C0C1C774A117801230B4313704E2800D9D5E08300744AD3589F4601AE07273770002340
:4007C0007370301C02F00EFD377001237370301C02F008FD6C4B1E68301CFFF7CBFF00280CD0301C00F0ACFD674E30680021FFF7FBFE30680121FFF7F7FE25E0634B1B7862
:40080000634A12783F210A4092010B401343614A127820390A40120313435F4A127860310A40520413435D4E33701A0A72701B0CB370301C00F084FD301C0021FFF7D4FE16
:40084000301C0121FFF7D0FE03200AF03FFC01A83F230370002343700AF056FC0422504B1A707BE022784F4B1A7077E02378002B74D16378002B06D14B4B0022DA809A807F
:400880004A4A1A6063603E4A137801218B43137064E03B4B1B789B0660D4454B1B78102B02D10522424BDA70424B187840490AF01DFD334A117801230B4313704EE0022279
:4008C000374B1A704AE00422354B1A7046E0344B1B78022B42D02A4A1278D2073ED5284A1278520708D503222D4B1A70244A137804218B43137031E0214A1278120708D56D
:400900000422274B1A701E4A137808218B43137024E0032B22D10422214B1A701EE02548211C022200F0C7FC00221E4B1A7015E0FFF7FAFE12E06188162900D9172120889D
:400940000BF040FE0AE0201CFFF7F8FE06E00C4B1B78DB0702D5201CFFF796FE084B1A7811231A4209D0064A137801218B431370114B1B68281C211C984703B0F0BDC0469C
:40098000D3200020F01F0100000C00207CF1FF0F7DF1FF0F7BF1FF0F78F1FF0F040C0020CA200020CC200020A40F0020A80B0020700C0020D0200020C42000200000000064
:4009C0000230800803D00138FDD1C046C046C0467047EFF3108072B6704780F31088704710B586B0041CFFF7F4FF0E4B1B6800930D4B1B680193033C0C4B1B5D02930C4BAB
:400A00001B68039304AA0B4B04936B4605930A4B1A600A490A4A11601B68FFF7DEFF06B010BDC04608010B4000010B402C21010030001040B6EA00000800104017000080F6
:400A400004001040024B1B68012018407047C0460C002E401F2318401E3B8340181C014B1860704700E100E001BE704738B5041C0D1C1F2802D90020FFF7F6FFA400034BB1
:400A80009C4664442068256038BDC0464000002008B5034B1B7A5843FFF792FF08BDC046780C002010B5041C0F4A116801230B4313600E4A0E4B1A600E4A136880210902CD
:400AC0000B431360002809D100200CE00120FFF7DFFFFFF7B7FF002804D1013C002CF5D1102000E0002010BD60F02E400220000078002E4010002E40034B1868C0231B024B
:400B0000184000D00120704700010B4010B50D4B1A6801218A431A601A68022082431A60094A10683024A043203C204310601068093CA043014311601A68802109060A4379
:400B40001A6010BD00F02E4000FF2E4038B51D4B1B6801241C40002802D0012816D02BE0184B19680122914319601968022081431960154B19682E308143203801431960AA
:400B80001968093881430A431A6018E00D4B1A6802218A431A600C4A10680725A84301431160116830208143103801431160196801220A431A6002E00020FFF755FF201C95
:400BC00038BDC04600F02E4000FF2E4008B5FFF700FF044A1368C02109020B431360FFF7FCFE08BD00010B4010B5FFF7F2FE08490A68084B1A408024E40122430A600A6821
:400C000013408022120213430B60FFF7E6FE10BD00010B40FF3FFFFF70B5061CFFF7D9FE041CFFF769FF002803D0FFF7DDFF012500E000250848331C0340084A1068084934
:400C40000840184310601368012D01D1FFF7BEFF201CFFF7C2FE70BD0404040010020B40FBFBFBFF10B5244B1B685B0715D5234B5B685B070ED5224B596A042001401F4C42
:400C800062688A4362605A6A82435A629B69002B00D098470420FFF7BFFF174B1B685B0518D5164B5B685B0510D5154B596A8022D2001140114842688A434260596A114ACD
:400CC0000A405A62DB69002B00D098478020C000FFF7A2FF084B1B685B030CD5074B5B685B0304D5064B1B6A002B00D098478020C002FFF791FF10BD10020B40880C002002
:400D0000AC0F0020FFFBFFFF0160704701607047324B1A781202324B1B781A43314B1B781B02314909780B4330498B4201D1072A06D0D42109018B4206D1042A04D102E004
:400D40002B4B042200E02A4B2A490B602A4B1A602A4B1B781B022A4A1278134380229201934202D0002B02D002E0264B00E0254B254A1360254B1B781B02254A127813436F
:400D8000244A934205D0244A934204D0052B05D103E0224B02E0214B00E0204B204A1360204B1B681B09204A1268AA2A15D1012B13D9164B1B780E2B0FD11C4B1B781B024C
:400DC0001B4A127813431B4A13601B4B1B781B021A4A127813431A4A13607047D9F0FF0FD8F0FF0FDFF0FF0FDEF0FF0F580B0000580D00006C002E4074002E40DBF0FF0F2B
:400E0000DAF0FF0F0220000078002E40DDF0FF0FDCF0FF0F0F0F000005050000050F000080002E40EC0F00F0E00F00F06DF2FF0F6CF2FF0F84002E406FF2FF0F6EF2FF0F81
:400E400094002E4008B5FFF723FE08BD08B500F04BF808BD08B500F04FF808BD08B500F04BF8034800F02AF8032000F02DF808BD410F000008B5024800F046F808BDC046CF
:400E8000410F00000220FF307047C0462B2070472B2070472B2070472B2070472B2070472B2070472B2070472B2070472B2070472B2070472B2070477047C046014B186736
:400EC0007047C0460000002010B5041CFFF781FD044A1368C0218B43A4011C431460FFF77CFD10BD0CE400E080225201014B1A607047C04600E100E080225201014B1A60CC
:400F00007047C04680E100E010B5041CFFF7F4FF201CFFF7D3FF0320FFF7D6FFFFF7E4FF10BDC04608B5FFF754FD044A136804218B43136030BFFFF750FD08BD10ED00E040
:400F400008B510F085FF08BD002243088B4274D303098B425FD3030A8B4244D3030B8B4228D3030C8B420DD3FF22090212BA030C8B4202D31212090265D0030B8B4219D388
:400F800000E0090AC30B8B4201D3CB03C01A5241830B8B4201D38B03C01A5241430B8B4201D34B03C01A5241030B8B4201D30B03C01A5241C30A8B4201D3CB02C01A5241EE
:400FC000830A8B4201D38B02C01A5241430A8B4201D34B02C01A5241030A8B4201D30B02C01A5241CDD2C3098B4201D3CB01C01A524183098B4201D38B01C01A5241430942
:401000008B4201D34B01C01A524103098B4201D30B01C01A5241C3088B4201D3CB00C01A524183088B4201D38B00C01A524143088B4201D34B00C01A5241411A00D2014650
:40104000524110467047FFE701B5002000F0FCF802BDC0460029F7D003B5FFF775FF0EBC4243891A1847C04603460B437FD4002243088B4274D303098B425FD3030A8B42B2
:4010800044D3030B8B4228D3030C8B420DD3FF22090212BA030C8B4202D31212090265D0030B8B4219D300E0090AC30B8B4201D3CB03C01A5241830B8B4201D38B03C01A7F
:4010C0005241430B8B4201D34B03C01A5241030B8B4201D30B03C01A5241C30A8B4201D3CB02C01A5241830A8B4201D38B02C01A5241430A8B4201D34B02C01A5241030A04
:401100008B4201D30B02C01A5241CDD2C3098B4201D3CB01C01A524183098B4201D38B01C01A524143098B4201D34B01C01A524103098B4201D30B01C01A5241C3088B42C5
:4011400001D3CB00C01A524183088B4201D38B00C01A524143088B4201D34B00C01A5241411A00D201465241104670475DE0CA0F00D04942031000D34042534000229C4617
:4011800003098B422DD3030A8B4212D3FC22890112BA030A8B420CD3890192118B4208D3890192118B4204D389013AD0921100E08909C3098B4201D3CB01C01A52418309E9
:4011C0008B4201D38B01C01A524143098B4201D34B01C01A524103098B4201D30B01C01A5241C3088B4201D3CB00C01A524183088B4201D38B00C01A5241D9D243088B42FE
:4012000001D34B00C01A5241411A00D20146634652415B10104601D34042002B00D54942704763465B1000D3404201B5002000F00BF802BD0029F8D003B5FFF715FF0EBCAB
:401240004243891A1847C0467047C0460E4B70B500251E1C0D4CE41AA410A54204D0AB00F35898470135F8E710F078FF084B00251E1C084CE41AA410A54204D0AB00F358B7
:4012800098470135F8E770BD6821010068210100682101007021010030B50024944208D0035D651C0C5DA34201D0181B02E02C1CF4E7002030BD002310B5934203D0CC5C29
:4012C000C4540133F9E710BD031C8218934202D019700133FAE77047134A1088810703D08107890F401A001D11791030484381B25088820703D08207920F801A001D80003C
:4013000040180A494030098980B2CA0701D0503080B2890706D504495422091F09785143081880B270470000960C0020D40F002010B501F0ABFE10BD10B500F04FFA10BD4A
:4013400010B50749044609780220002907D1204601F0ECFE002802D1204609F0ADFF10BD000E002070B504460120002C12D02368002B0FD0616800290CD0074D06222889FA
:40138000208118462968FFF796FF6968606809780170002070BD0000D40F0020FFB585B0002768460E9D07734C481C460078002802D0082009B0F0BD10990F9801900095E8
:4013C000029105A807C800F0FBF80028F2D16946264603AB84460873002C19D0002115E08A00B75A082F09D990198078002805D0083FB7521878401C187005E0002915D0CE
:401400000027B75290198770491CC9B2A942E7D360460028CED10F9800280AD0109901F0E9F90006000E04D00120C3E701208446EEE701F02BFE2948002101610C3005996A
:40144000016021888180022D03D3A1798171A17AC17100211EE0481C19E082008B00A75AE65ABE46BE4211D26F463E80B4461E190296B678BE7001967646E6521719029E5F
:40148000BB78B3706646A652019EBE70401CA842E3D3491CA942DED3114800906846037B22460799069800F013F9002882D168460A4C007B60700A4801F018FE0028B4D1E1
:4014C000204607490C3006F021FF0028ADD106F03BFF0028A9D1012121706BE7900C0020D40F0020F8B5054633480E460078002802D002242046F8BD002E5BD000242F4939
:40150000002D16D02A89D0070DD02868002808D003881B3BE12B04D24088FB2801D81B2801D2012409E0900707D56868002804D1F7E70020088108604860002CDAD11F48E1
:401540002F8907811C481B21801D018041800421017119490020891C0870F80705D016480622801D2968FFF7A6FE1449B80703D56A681148127882700F480D46801D08600A
:40158000001F486001F0F8FD0B48801D01F0E6FD28890CF0ABFE28890DF012F803461033FFF79AFE1F21C018890140180249308088809FE701249DE7900C0020D40F0020A7
:4015C000FFB58446384F1C460020BB883F78054602460646002F11D100290ED0029999420BD36146002908D0002C06D00A99002906D02E4B0B99994202D2012004B0F0BD85
:40160000002144E0AB001F19BF78002F3BD0E35A002B38D07B43591889B22B0000F04AF8050410161C253100A7782388BC46FF27233BEB37BB4222D26346032B1FD322E00B
:40164000A388002B1FD0302B19D31CE02389002B19D0282B13D316E0A289002A13D01346134F233BBB420AD20DE0268A002A0AD033460F4F233BBB4201D2964203D901204E
:401680000EE0002001E000280AD16D1CEDB2099B9D42B7D31C2463435B1802998B42ACD89642AAD8AAE70000900C002079020000BAFF000030B47446641E2578641CAB42B9
:4016C00000D21D46635D5B00E31830BC18470000FFB583B0002469460C801F4606468C80002806D00598002803D004983043800701D0012467E0002FFBD034490498098844
:401700008842F6D3FFF7B6FBFFF7A4FB00F010FC002856D100F06CFD002852D12C49084601F09CF805042D0C4BD12A480499066081800021C18007810C98007AC00704D02C
:40174000684601F0BCFC040007D10C98007A800703D501A801F0BCFC0446BF1DFEB2002C21D13146059800F05DF804001BD10CF035FF0406240E16D16A4610889288083637
:401780008518144AF1B29088D288AEB29319984207D3401B801A80B201F050FB050007D000E0FF25012400F05BFA002D04D008E0F8B200F01BF9F6E700F07EFA0649012060
:4017C000087000F0C7FB204607B0F0BD940C002011190000E00F0020A40C002010B503480078012801D101F0CBF910BDA40C002070B5084B0446DA889E8800205518B54289
:4018000006D81D68AA182260DA885118D98070BD032070BDE00F00200148008970470000E00F0020F0B587B007460D4600208900009006916846FFF7DBFF844600285DD1CF
:40184000304800990160002117E02E4B88001A680629115406D22C4C0419667882185670628805E0C419203CA67A8218567022891B68C018491C4280C9B2A942E5D3002425
:401880002DE0601CC2B2059025E01E4FA30039689600581840887118039604904E88B04217D938466F46FE80B6464F786E4677710297049F4F800168039F5E187678791889
:4018C0004E700168764659184E800068029F18184770521CD2B2AA42D7D30598C4B2AC42CFD36046002809D168460699FFF780FF8446002802D1054900980860604607B0D1
:40190000F0BD0000A80C002090210100AC0C00207047000010B5002809D005494A68002A05D0011F08788000105801F035FA10BDA80C002010B50446FFF76EFFC0B2801D56
:40194000A0420CD307484068002808D0A100405801F094F9002801D00470001D10BD002010BD0000A80C0020F8B516460D460446FFF752FFC0B2801DA04203D20020C0430A
:401980000090F8BDB2B2E9B2684601F09DF90099481C03D0024AA000526811500098F8BDA80C0020F8B50746FFF736FF801DC6B20A49002005460C680DE06178002907D084
:4019C0006188B94202D32078FFF7B4FF002804D1241D6D1CEDB2B542EFD3F8BDA80C002010B5002801D0FFF795FF10BD70B506460948002504680BE06178002905D0628831
:401A00002078121D0023FFF7AFFF241D6D1CEDB2B542F1D370BD0000A80C0020FFB581B00A9C16002BD000F0F1F80546042826D0214F002C0BD02046FFF7B4FF2901C9197F
:401A4000486000281BD022460499FFF734FC1A4928010E5046187481019805707D20029CC000444300F0C0F8009004280AD000F055FAA0420ED800F051FA201A06E0FF20F4
:401A800005B0F0BD204600F0ADFA0020B08135720020F5E700F042FA074600F0B9FA381B87B23846012100F0EFF800980101024808188781E6E70000EC0F0020F8B506010C
:401AC00017483418217A042903D0A089002802D018E00020F8BD00F021FA054600F098FA00F0A2F804280DD001010D480F18B88941198DB2002100F0C7F80020B881284656
:401B000000F070FA6068064D002801D0FFF768FF042020720020A8516081A081D9E70000EC0F0020FEB500266A46304601232549050169180D7A042D02D0898900291BD066
:401B400000211154401CC0B20428F0D300246846005D002830D01B482101081841894768056802910021016041600422418102728181002E02D015E01354E3E700F054F8CA
:401B800004280ED001010F480818019086890021304600F079F8019800218181304600F021FA0126002D07D038460299A847002F02D03846FFF714FF641CE4B2042CC6D333
:401BC000FEBD0000EC0F00200EB5002005216A460090118150810348694600680DF073FB0EBD0000B00C0020074A0020010189180B7A042B02D08989002903D0401CC0B279
:401C00000428F3D370470000EC0F00200549002002015218127A042A03D0401CC0B20428F6D37047EC0F002030B50A4B04200A4C00210A011219157A042D06D09289002AFD
:401C400003D09A4201D808461346491CC9B20429EFD330BDFFFF0000EC0F00207047000030B50020074C05460423020111190B72A5504D60401C4D81C0B28D810428F4D3F6
:401C800030BD0000EC0F002030B5094C00231A011219157A042D04D09589002906D02D1895815B1CDBB2042BF1D330BD2D1AF7E7EC0F0020002070471CB5002469460C7052
:401CC000142001902346054A05480DF001FB04480068401C00D1FF2420461CBD351D0000B00C00203EB5124A0146FF2000230124126800290DD0012914D0042908D10420FB
:401D00006946009308814B8110460DF0DCFA80B23EBD6846009304814381694610460DF0CDFAF4E768460093048143816946EBE7B00C002070B5458904684168008903000D
:401D4000FFF7B8FC08280509091E22282628002005F0EEF91EE0022908D0C8B22A4621460BF074FC2046FFF73BFE13E002202A4621460BF06BFC2946204600F00DF809E06D
:401D800000200CF08FFF05E02046FFF7CBFE01E0FFF792F8002070BD014B0022DB681847B40C002070B5448905680089022803D0032809D0FF2070BD2246094C0023A468B0
:401DC00029460120A04708E0FFF7B2FA241DA2B200232946022006F04AF9002070BD0000B40C002070470000024800214160018041807047B40C002070B50C46002186B0C9
:401E000016460391012802D0022859D116E003A9012006F08CF901281BD1039D324621462846FFF748FA0095287801900220694608814E816846FFF7B5FF41E0214D002BEA
:401E4000686809D0049004A9022006F070F901281DD0022006B070BD002812D0298840182146FFF728FA28880024801980B228806988091D884206D12C801348FFF792FFBD
:401E800003E00320E6E788421AD96C6018E004986860E278A378110219430B4A698000231060E3565360032313815181A1788170E178C17061784170217801700420288049
:401EC0000020C7E7B40C00202C1000203EB515460C46022803D004280CD000203EBD0091019002206946088107484A8100680DF0EAF907E00BF0AAFB044B0022DB68294690
:401F00002046984701203EBDB00C0020B40C0020014AD16090607047B40C0020034801688068081A0A214843000970473810002010B5FEF793FF482204490548FFF7BBF9EB
:401F400003490120C870002010BD0000AC2101003C14002010B5FEF779FF10BD70B5134C2368002B08D0207B1149C20705D04008400020738868A08070BD88680B4AA18827
:401F800080B29268814203D90A4D691A091802E0814202D2411A5118A160A080A0689842EAD30DF0ADF900F013F870BD38100020C0102E40FFFF000010B508461946FFF787
:401FC000A7FF10BD704710B5FFF780FF10BD000003480021016041608160C1607047000038100020024610B5FF20002A0CD0FFF7EFFF064C0321207B0843207310010A21E0
:40200000FFF728F82060002010BD00003810002000B504480A21806848430209FFF7D8FF104600BD381000200248007B8007C00F704700003810002010B54449086800289F
:4020400002DA434B01221A70022290430860414800693E49C00B4031096A08425ED0012000F086FA3B483C497C30FEF74FFE37480E216C30FEF74AFE364820218430FEF7D4
:4020800045FE344814219C30FEF740FE3148FF21C131A430FEF73AFE2E48FF212F31B030FEF734FE2B482D49BC30FEF72FFE29482B49AC30FEF72AFE29492648491CB430A6
:4020C000FEF724FE23482749B830FEF71FFE21482549CC30FEF71AFE1E4824490830FEF715FE1C482249A830FEF710FE194821498830FEF70BFE17481F498C30FEF706FE5A
:4021000014481921C9029030FEF700FEFEF700FEFEF7B8FEC0B2022802D00FE0FF2010BD16491748FEF7F2FD15481649001DFEF7EDFD134800210830FEF7E8FD54200449FB
:40214000C043891C0870002010BD000000F02E40C40C002000002E4055650000320300002F3F00003102000010520000EC160000FA12000031D000003AE300009956000089
:4021800080012E40F80F000070B50646581C80B245086D00002408E0304600F0C1F81055000A1119A41C4870A4B2AC42F4D3D80705D0D0182038D15CC47FD454C17770BD20
:4021C00030B50A4C002100195B1E07E0541864782502545C2C430480891C89B29942F5DB994201D1515C018030BD000000102E4010B5FF2000F0BCF90F49FF2048700E4819
:402200001021801D41800121417001700A490020C91C4870FFF710FF04000AD100F008F907210648FEF770FD044807211830FEF76BFD204610BD0000C40C0020CC112E4087
:4022400070B5002405465B1E0AE0284600F068F8010A161971702D1D1055A41CADB2A4B29C42F2DB9C4203D1284600F059F8105570BD000070B500210A4D5B1E0AE0541860
:4022800064782602545C344346193480001D891C80B289B29942F2DB994202D1515C4019018070BD00102E40F0B50599091FCFB200217E1E0BE0541864782502545C2C4307
:4022C000164D45192C80001D891C80B289B2B142F1DBFC0712D01C78515C24020F4A0C4381180C809C785D78001D210280B2294384182180001D80B2D9780CE059781A7877
:4023000009021143054A84182180001DD9789B78090280B2194380180180F0BD00102E40014940180088704700102E4010B50B490020487000F07CF8002000F03FF9002038
:4023400000F02CF907210648FEF7DEFC044807211830FEF7D9FC002010BD0000C70C0020CC112E4010B50B46062812D006DC01280CD0032801D1FFF7D9FF10BD0A28FCD0AF
:402380000B28FAD105480078107010BDFFF730FF10BD1146184600F02DF910BDCA0C0020F8B5204DAC6A0127A0071F4E002816DA307806280ED1286A384328621B480069F1
:4023C000F903084381B219481030FEF79FFC042000F0CEF8134802212830FEF795FCE00711D0062000F0C4F80F49FF20C91E48707078002802D1686B3843686309480121DD
:402400002830FEF781FCE0050BD53078042802D1052000F0ADF80348FF2101312830FEF773FCF8BD40F02E40C70C002000002E4010B503212348FEF769FC0120FEF702FDDC
:4024400020483038406A204C80076178800F890001431C480C38FEF759FC6078002808D0401E022181401820FEF7E4FEC000083800E0B82081B21548FEF748FC134803219F
:4024800009021438FEF742FC10481149B830FEF73DFC612189010F48FEF738FC0D480321001FFEF733FC0C490C48FEF72FFC0B480B496038FEF72AFC084801218838FEF738
:4024C00025FC10BD70F02E40CA0C0020D8102E4090890000041E2E40FF0F000058122E40209000000849087806280BD148780749002803D1486B400840004863C86A012273
:402500001043C86270470000C70C002040F02E400148007870470000C70C002000B50300FFF7C8F8080D050D0B070507090D012000BD032000BD042000BD022000BDFF2005
:4025400000BD0000074A9168D26889B2064B92B2994204D105498A4201D1012100E000210170704780002E4033D000003FE3000010B50446FEF76EFC072C01D9FF2C01D1D8
:4025800002480470FEF762FC10BD0000C70C00200149487070470000C40C002010B5064A012805D01921C9021046FEF7AFFB10BD1D21C902F8E7000090002E4010B50A4AC8
:4025C000141D012808D009491046FEF79FFB08492046FEF79BFB10BD04491046891CFEF795FB0349491DF3E788002E4031D000003AE3000070B50C460546FEF743FCC0B28E
:4026000002280E49287804D0FF2810D04C280CD810E0FF2809D10A4AD0680004800F032801D0087807E09069000A553803E00878207070BD4F382070087070BDC60C002075
:4026400000002E40F0B50122002830D000292ED00424420600D00524792342065B06D21800D0641C034600221EE00C2516466E43104D00277519AF720E4F002ABB516960B7
:4026800007D0661EB24209D10B4E86197606760E05E05E06760E8027BE1B00E080269B198919521C2E81D2B2A242DED300221046F0BD0000C4120020790200000749002094
:4026C0000C2242435218927A012A05D0401CC0B20628F5D30020704701207047C4120020F8B50F000446164609D0184D18496868A04202D94018A04201D38E4201D90120E1
:40270000F8BD39462046FEF7C7FD00281BD0324639462046FEF7CFFDF0B200210C224A43521913895668F718A74208D90127A41B1B1B9772834206DAC01A1469C0B2491C00
:40274000C9B20629EAD30020F8BD0000C41200207902000010B500F05DF80748054AC16806480C46FEF7A7FD04492046FFF76AFF10BD000079020000D00C002048100020D4
:40278000002070470020054A002902D0012902D002E0506000E0906000207047D00C002070B5084C154608460549A26889182A46FEF781FDA0684019A06028B270BD000041
:4027C00048100020D00C00203EB50A226946FFF7E7FF044606480A2200686946FEF75CFD002802D00020C0433EBD20463EBD0000D00C0020002802D0044A914201D2FF2010
:40280000704703490A61C8600020704779020000D00C0020024800214160816070470000D00C002070B5074C15460548626880182A46FFF755FF60684019606028B270BDF0
:4028400048100020D00C002010B503490A220968FFF7E8FF10BD0000D00C002010B50F4A002313600E4A13600E4B18600E4801600E49012008600E490860000290600E49A1
:402880000C4808600D4914300860FF381538506000F0BCF800F0CAF9002010BDFC0C0020E40C0020100D0020140D0020000D0020F00C00200C140020F40C0020080D00204E
:4028C000014610B50020002910D0094B1A689C685118A14209D25868196080188A0704D08A07920F891A091D196010BD002010BDE40C0020F8B50024164E671E321F3D46A0
:402900003168136806E01422624310328A58521C1BD0641C9C42F6D36A1C14D02C461422544322460C3288500C214843FFF7C8FF3168002808510AD0316800201034085138
:402940007068401C70602846F8BD2546E4E73846F8BD0000F40C0020F3B50026F64381B000281BDB1E490968884217D80299002914D01B4F142204463F1D5443254639682F
:4029800010354859401C09D0FEF764FA38682F1F4159C359994203DBFEF758FA3046FEBD214608310091465801590C20704308180C220299FEF77FFC0948761C001D00680B
:4029C000C159B14200D100260549009A091D865008684159491C4151FEF738FA0020FEBDF00C0020002803DB07490968884202D90020C043704704491422091D09685043DD
:402A00001030085870470000F00C0020F0B500200D4A451E0346171F50600FE014260146714314680E1DA3510C461668083433511668083435511468401C635039688842F0
:402A4000ECD30020F0BD0000F40C0020F3B50026F64381B0002841DB2349096888423DD8029900293AD0204F142204463F1D54432546396810354859401C2FD0FEF7EAF99D
:402A80003868415900292BD0211D009146580C21005971430F46C1190C220298FEF70BFC11480021001D0068761C00590C34C0190160416081600C48001D00680159B14212
:402AC00000D100260849009A091D865008684159491E4151FEF7BAF90020FEBD3046FEBDFEF7B4F9FAE70000F00C0020FEB504460D4600201E49089E0860471E0090019037
:402B00000290002C11D0486885420ED2002A0CD0002E0AD0642E08D808460C3001681C2068430C18207A002801D03846FEBD0120226020721846FFF7DDFE6060401C13D0F2
:402B40006681A6810A4827610C3067610179A94200D205710021684601810A462846029B00F040F82846FEBD00202072DDE70000FC0C002038B50124009400F039F838BD65
:402B8000FEB50027164EFF433D4600240EE01C20316860430818017A002906D04068FFF721FF002801D0254603E0641C3079A042EDDA681C12D01C2130684D434419FEF7FA
:402BC00049F969466068FFF741FF0546FEF73EF9002DD9D1216868468847D5E7FEBD0000080D002038B50024009400F001F838BD1FB500220C49541E0A60002811DB496877
:402C000088420ED808491C220C31096850430818406801A9FFF7A0FE401C02D0002004B010BD2046FBE70000FC0C0020F0B50021114A4D1E174611710C3F0B46BD6016E0B5
:402C400008461C2460431668041D355114680646235014680836A3551468361DA353044616680A34335318301468491C255078688142E5D30020F0BD080D002038B50021B7
:402C80000091002811DB0F49097888420DDA0D4D04010C3529680859002807D0201D0818694600F06FF9002801D0002038BDFEF7D1F828680F34015D491E0155FEF7C6F883
:402CC000009838BD180D0020F7B582B0002502986E1E06602E48D21C024017462D4A2C4610460C380178106805E02301C358002B0FD0641CE4B28C42F7D3711C28D0340166
:402D0000211D40180191039900F02AF900281FD101E02646F1E71F48016820460C300F521C480399026820460E30115419480399026820460F3011540398784300F0A0F8EA
:402D4000144900280968085102D00024009011E001251AE00F48016801980818009900F02CF9002801D0012502E00098C0190090641CE4B203988442ECD3002D05D1029871
:402D8000066004480179491C0171284605B0F0BDFCFF0000240D0020F8B50D4600216A468C461180002839DB23490978884235DA214B04010C3319680A59002A2ED020469C
:402DC0000C300B5A801C0E5C184670438018954224D3854222D2002006E007465F43BF18AF4206D0401CC0B2B042F6D36046002814D0114E271DC8190C366A46294600F057
:402E000006F900280AD168460088012808D030682946C01900F0D1F8002803D00120F8BD0020F8BDFEF716F830680F34015D491C0155FEF70BF8F3E7180D0020F8B50F460A
:402E4000002400F031F8002817D10C4900220B460C334A600EE021011D680E466A501D680C36AA53B61C1D680F31AA551D68641C6A54E4B2BC42EED31A71F8BD180D0020BA
:402E800000280BD0C01C074A81085068890053884118994203D89368516018187047002070470000180D0020F8B5064600200F4D009029700C0121466846FEF799FC00280D
:402EC0000CD129460C3100980860301B001F84B221466846FEF78CFC002801D0FF20F8BD6C800098A8600020F8BD0000180D0020F8B5002827DB19490978884223DA174CC0
:402F000005010C342168485900281CD028460C30085A009028460E300E5C401C0E5420682F1DC01900F064F800280CD12068002445590EE0094829460C300068C01900F03A
:402F40003CF8002801D00120F8BD00982D18641CE4B2B442EED30020F8BD0000180D002030B50D4604000BD0A800FFF789FF6060002805D000202570C0436080002030BDEB
:402F8000012030BD70B50D46040005D0002D03D00220205E002801DA012070BDFDF75AFF0221615E60688900405828606088401E6080FDF74BFF002070BD70B50D460400F4
:402FC00007D0002D05D002212078615E401E814201DB012070BDFDF73DFF6088401C00B26080616880000D50FDF730FF002070BD10B5040009D0227800216068FEF764F9A0
:403000000020C0436080002010BD012010BDF0B500231D46002802D00224045F0AE00120F0BD46689F00F6598E4201D1012503E05B1CDBB29C42F4DA15700020F0BD000003
:4030400001480078704700002C0D00207CB505460024FEF76DF9A8796946087000A8062229460130FEF727F90021684604F026FB0C2804D0072804D01F2804D004E00224A3
:4030800002E0042400E0272420467CBD10B500F031F9FFF73DFAFFF741FA10BD70B504460025FEF745F9002C06D0A079012803D8214602F06DFB00E00125284670BD0146A3
:4030C0000120002902D05020088000207047000001460120002905D0034854220078504308800020704700002E0D002010B502460D49FE204870032410460CF007FC00281C
:4031000010D10CF0ABFB00280CD105F06DF8002808D100F0DFFA002804D104F053FD002800D10024204610BD2C0D002070B50025044600280ED0A07901280BD8FEF7F8F855
:40314000A0790028204602D002F0B0FE03E002F085FE00E00125284670BD0000014610B50120002904D006220248FEF7A4F8002010BD0000300D002001460120002903D062
:403180000878024908700020704700002E0D002038B504460120002C20D0617801291DD800290BD0FF25E535FEF7C2F80C4828180088C0B22070072803D00EE0FF25CD3509
:4031C000F2E70020694608706846FFF7BBF969460878012801D108202070002038BD000000102E40F8B504460120002C26D06178012902D92278092A20D8002905D0FF25E3
:40320000E5352078092803D004E0FF25CD35F8E708202070FEF78CF82078114F114E08280DD00020FFF7CAF970780128207810D00D4969180880FE2070700020F8BD0120A5
:40324000FFF7BCF90720B8810549203188800120F2E7B8810248217820308180EBE70000C0112E402C0D002000102E4070B50E46050001D0002400E00C4C002C11D0E28A29
:40328000500609D5D107C90F022002F0A3FEE08A40218843E08204E0D107C90F012002F099FE3146284602F081FB70BDA4140020F8B50546002004460D4E009013E022463F
:4032C0006946284600F01EFF0098002801D00CF0FFFAA878214602F0CBF9A878214602F0B9F9641CE4B2308AA042E8D8F8BD00005C15002038B51E4CFFF70AF9042813D09F
:40330000052811D0062812D003282AD007280AD100206946087002460120FFF723F8FFF7F7F80128FBD138BD00F048FB38BD02F0EDF900F043FB02F04DFA8007800F022809
:40334000F4D10C4841880029F0D05B21095D0029ECD101210170A07D0140022002F03AFE38BD02F0D7F90120FFF702F938BD0000A41400203C0D0020F8B50646002402F06F
:4033800097FE0546304602F0ADFE03460A480021068A0DE001228A401046174628401F40002803D0002F01D1224394B2491CC9B28E42EFD82046F8BD5C1500201CB50020BF
:4033C000694648706846FFF7E3FE01AA69460A20FEF7C8FF6946042008561CBD10B50C4601F062FA002809D00179002906D0C1788078224602F060FB002010BD022010BDF7
:4034000001480078704700007C1400204030C07E002800D00120704700B500F001F800BD8C2148430749084A40186030417F491CC9B24177D289914201D300214177C8B21C
:4034400070470000841400205C15002013B501F02BFA04000BD001F0C8FD002807D0214601AA0A310620FEF77DFF00201CBD02201CBD000010B50C4601F016FA00280AD0E8
:4034800001F0B3FD002806D0224604490A20FEF769FF002010BD022010BD000065140020F3B581B0074601460026029802F0F8FD0446002F01D0002500E0154D002D21D0D9
:4034C000284601F027FA032C04D13946029802F043FE06463846029902F0BCF8032C06D0002C10D00121384601F01AFB03E03146384603F02DF8284601F0A0FF02212846BB
:4035000001F0B6FFFEBD3846029902F0A3F8FEBDA414002010B5044603F064FC002801D00C2010BD2078611C02F0C8FBFF2801D01F2010BD02F00EFCFF280AD02178621CBB
:4035400002F016F8044821780068026B601C904710BD072010BD0000540D002010B503F041FC002801D00C2010BD02F089FB03480068C06A8047002010BD0000540D00208D
:4035800070B50D46044610210CF0E2F81021601806460CF0DDF8334610221946204603F04FFC102130460CF0D3F802202870204604F060FA70BD0000F8B50446407821787D
:4035C00002028006870FE0781143A67809050002090D0643084601F067F900210546F2B2002812D0002C10D0022F0ED0032F0CD0002A0AD00279092A07D0002A05D0134AAB
:403600005A23527E1B5C9A4207D82889002104F066F920460CF05CF9FF21002914D10C48224600682946436930469847C0B2FF280AD128464030817EF2B2491C8176FF23FA
:403640002146284600F0DDF8F8BD00003C1400206C0D00200020704710B5044603F0C2FB002801D00C2010BD2078611C02F026FBFF2808D002F05EFA044821780068426BFF
:40368000601C904710BD1F2010BD0000540D002010B504F097FA00F057F9002010BD10B5044600786178E2780843A17811430843217908436179084305D003F085FB0028AF
:4036C00003D00C2010BD122010BD204602F0EEFB002010BD10B5FDF7D5FB02F00BFD044803F0ECFB02F030FA012000F003F810BD4C140020F1B586B003A8009005A801905E
:4037000025489F22817A114081726846FDF72AFE00283FD169460989C90705D01F4806990068C2686846904769460989890706D500282FD11A480068816A069888470028F9
:4037400028D1184E0025757075737571F575357675767575B570F570B5713746F5730120BC3738731F20F880FF2130467972A0300175457500F056FA00242046069901F042
:40378000DFFB002803D1641C2406240EF5D0FD72BD72B57307B0F0BD3C1400206C0D0020540D00208414002070B505460E46084602F07EFC0446304602F094FC0121A9405B
:4037C0000A46224001400A4301D0012070BD002070BD10B50446084602F084FC0121A140014201D0012010BD002010BD10B5FEF78FFE032804D101F08DFF0120FEF7B8FECC
:4038000010BDFEB51C4616460F46054601F016FEA878FFF701FE02460190334639460094284600F00DF8002808D1A8780199FFF71DFDFF2C02D138460CF04AF8FEBD000088
:40384000FFB585B005460E980C46FF2810D02B49C00009680A5840180179C0795278814201D9012601E09006860F6846038108E06078A1788006860FE078000201436846F7
:403880000181284601F0BCFB070007D021462846079A00F0CBFB384609B0F0BD304600F079FC04AE0346039002AA29460096204600F005FB3C20405D002818D0284601F0AA
:4038C0009FFB012813D0684600890096C0B20190A878231DFF22079902F01CF868460089039BC2B2A878079902F05CFBD3E7684600890021C0B20091E9E70000680D00205F
:40390000F8B5104F002500242846FFF735FD060012D00EE03046E040C007C00F07D02146284601F08FFE21462846FFF7B9FD641CE4B2388AA042EDD86D1C2D062D0EE2D0C7
:40394000F8BD00005C15002010B502F0FDF80020FFF7D0FE0CF052F8002010BDF8B5002400F094F80123012800D10124104F00203E4620360425082203E0002801D0002105
:4039800000E031460979002907D001290BD002290BD0114681402143CCB2401C0006000EEBD07C70F8BD1C43F7E72C43F5E700008414002010B5FFF7D1FF10BD10B5FDF70C
:4039C00008F80446FEF7A4FD012809D0FEF7A0FD022805D0FDF7A6FA2046FCF7FEFFEEE72046FCF7FAFF10BD10B50B4681791943817103D08078114602F0A2FA10BD10B5D6
:403A000082798A43827102D1807802F0ADFA10BD30B50C4C0220A28A0B4B9978002901D0022906D11D785B78EB18282B01D9032002E0032900D101205105490DC00201433F
:403A4000A18230BDC0112E40370D002000B500F023F8002807D0012805D0032801D0042801D0002000BD012000BD014600B50020C90701D000F00AF800BD014600B500209A
:403A8000C90701D000F002F800BD000001480088000A704720102E400448008B410501D5042070474007800F7047000000102E4038B50446000610D5FFF7EEFF01280CD1AA
:403AC000684601F02DFE6846007800F0B3FA012001F01CFD0220FFF76DFF0348006801692046884738BD0000540D002010B5034A0178117002F046F9002010BD370D002034
:403B000070B50446FFF7C2FF002801D00C2070BDA27B01211F48002A827801D00A4301E05208520082706279012A14D0C17849084900C170184D286801682046884720798C
:403B400001280CD06188208802F07CFF2080207904280FD015E0C2780A43C270EAE72868C168E01D8847E01D02F08CF90B48808C208006E02868C168E01D8847E01D02F02D
:403B800081F9074920798870204602F009F9002070BD000084140020540D00203C140020370D002008B50178FFF770FF814201D10C2008BD002914D0072069460870FFF784
:403BC00045FF012807D10121684600F08BF8012801D0092008BDFFF71BFF02F015F9012011E0FFF733FF012806D1684601F098FD6846007800F052FA02F0FCF8FFF746FF54
:403C00000028FBD10220FFF7D5FE002008BD000010B5034A0178517002F072F9002010BD370D002038B568460BF0E8FD002801D01F2038BD01210098C90201804180002532
:403C400005714571857107214173857302F0A8F8009C202200212046FDF736FB25702A460021601CFDF730FB204602F08BF8204602F046F900980BF02BFE042200210248B2
:403C8000FDF722FB002038BD370D00200346084800B5834209D8184600F006FE002804D00089984201D1012000BD002000BD0000FF0E0000074A9179491C8906890E917153
:403CC00038220A4092014907090E1143084302490840704784140020FF0E0000C006C00E70470000F8B507460E4600240D4803E0002C01D0002500E005462979002905D096
:403D0000641C2406240EF3D00020F8BD0021204601F016F92E712046FFF7CCFF28813C700120F8BDA414002010B503F0BDF80222002100F003F801F0B3FE10BD10B5094B9A
:403D400040074907000F090F185A595A40185043C0086421FDF77EF9002800D1012080B210BD0000F4210100F7B53D20405C88B015460C46002802D02878042802D200204A
:403D80000BB0F0BD6946087200262046FFF73EFB012800D00126204603A938300191009023460327A17E34333246206A03F0A0F802A8089900900B46019120463A4603A905
:403DC000243003F01DF802466846007A2870204601F0A2F81046D3E7FFB587B00C4605461078694608723D20005D1746002826D000262046FFF70AFB012800D001262046E3
:403E000003A93830019100902346A17E34333246206A03F06DF802A80090291D019120462B1D03A924300A9A02F0EAFF02006846007A388002D1204601F06EF810460BB041
:403E4000F0BDF0B505463C20405C89B016460C4600280CD0307869460873002806D000272046FFF7D3FA012803D003E01F2009B0F0BD012703200890204604A9383001912E
:403E800000902346E17E34333A46E06903F030F86846007B03A928180290009120462B46019504A92430089A02F0DEFF02466846007B3070204601F039F81046D7E7FFB5E7
:403EC00005463C20405C89B016460C46002810D0084601F095F801280BD0308869468883002809D000272046FFF790FA012805D005E000200DB0F0BD0220FBE70127204641
:403F000003A93830019100902346E17E34333A46E06902F0EDFF291D2B1D07A8129A6D4607C5204603A924300C9A02F09DFF02466846808B3080204600F0F8FF1046D9E75F
:403F400070B50D460446FFF761FA01280AD0E87AA97A00020143A07801F09EFC012808D0002070BD00222421204602F0BDFC242070BD28214C200155204600F0A3FB28203F
:403F800070BD0000002801D0002000E003484030C07F012800D0002070470000A41400200146002049070ED50021084B03E0002901D0002200E01A461279022A04D0491CFC
:403FC0000906090EF3D0704701207047A41400200146002049070ED50021084B03E0002901D0002200E01A461279022A04D0491C0906090EF3D0704701207047A4140020E4
:4040000010B5044680346068002803D00BF074FC0020606010BD4030417070474030817070474030017070470171704792001018C166704770B53C2501F080F9040004D0D1
:4040400020460021433001F0DBFBFF222946204600F0D4FB002C02D0A07801F0F1F870BD10B5002801D0002000E00348002802D0008903F07BFC10BDA414002010B5002825
:4040800001D0002000E00448002804D00179072901D100F047F810BDA414002010B501F04DF9002802D0807801F0CAF810BD00207047000070B50546008A00281ED01049E9
:4040C000F122897A1140C90618D5294640314A8A098A521C4A4392B2D10800D10121540801E0621A94B2A042FBD9FEF7A9FF012804D1298AA878224601F094FC70BD000012
:404100003C14002010B50023054C0B60248A944204D992001018C26E0A60C36610BD00005C15002038B5044600200090A079002814D14020015D052901D00E290ED16846A1
:404140000BF06CFB002809D12046009902F0AAFB03481021C28A2046FFF746FC38BD00003C14002010B50B4604460146184602F027F8002802D020460BF0B4FB10BD13B5C5
:40418000044601AA11460620FEF7ECF86846818861811CBD002800D10220704770470000F8B504462346401D543300909A1EA078911E01F0D1FA25464035A88A298A800065
:4041C000FCF748FF401E81B2688A884203D96982A07801F039FF20460021433001F010FB27480088E88102F05FFEE989891C8AB26179FFF7A3FD01F053FC02F055FE2A8A8F
:404200006179FFF79BFD074601F03EFC688A002806D01C49088A032212021043088202E0002001F005FF1748803801886E8A002E0CD0304648431449FCF7FCFF0004000CAC
:4042400001D0401C80B21149488002E00F4800214180288A704381B2A07801F05FFEFF2228374932B9B21346204602F0EFFBE98AA07801F0D3FDA07801F00CFAF8BD000093
:4042800080102E40E0112E40710200003C0D00207FB504468034616805460E46183108226846FDF708F831462031082202A8FDF702F8102168460BF04BFA6068102108303C
:4042C0000BF046FA60682B46083024331022694602F0B6FD7FBD10B504460821FFF78FFB10212046FFF78BFB207905281FD006281DD008281AD12189002003F0AFFA0720B6
:4043000020712046FFF782F8014620464030012913D00E21017000210176204600F0A2FF2046FFF76DFE2046FFF7C4FE10BD20890122002103F076FAE1E70521EAE70000FC
:40434000FFB581B01F4604460821FFF758FB10212046FFF754FB2079082803D0092804D0042203E00422012501E009220025204600F032FE26460020403630702271204613
:40438000FFF73EFE0398002D02D0012808D00BE001280AD120890022029903F043FA04E02189029803F05AFA012700203076012F04D0204600F056FF05B0F0BD0298307300
:4043C000204602F0BDFA054605480121C28A2046FFF70AFB002DEFD109202071ECE700003C14002070B50C460546FFF70FF8012809D108212846FFF702FB00230122214664
:404400002846FFF79DFF70BD10B5044600F0E4FD2046FFF7F5FD00214034217010BD70B505461A24FEF7F2FF012809D108212846FFF7E5FA0023012221462846FFF780FF9B
:4044400070BD0000F8B50446002000900E4668460BF0E4F9002801D00D20F8BD8420005908212030009D00F01AFA20460421383000F015FA002E02D1204600F0E9FD2946FE
:40448000204602F09EF90E480821C28A2046FFF7ABFA204600F057FF25464035002808D0204600F023F8002801D0092028700020F8BD08202870204600F0C0FFF7E7000002
:4044C0003C140020014610B540310A460978082906D0092907D00A2901D100F091F810BD0B20107010BD00F001F810BD70B50446007925464035052805D0062803D008287A
:404500000FD00C2070BD03220621204602F0ECF90D480821C28A2046FFF766FA1120287010E006202873204602F00AFA0646AA8A0A20424301212046FFF756FA002E01D161
:4045400009202071002070BD3C14002038B504460020009068460BF061F9002801D00D2038BD2046009D00F0B1F908202071204600F06EFD2946204602F056F900213D2014
:4045800001550F2040210855204600F057FF002038BD00B5024600F01FFD10214032117000BD10B50446FEF731FF012809D04020005D112805D100231A4606212046FFF705
:4045C000BFFE10BD10B5FFF786FE10BD38B504460021684600910BF021F900280CD12046009902F0A2F905480821C28A2046FFF7FBF90D204034207038BD00003C14002040
:4046000038B504460021684600910BF007F9002801D00D2038BD2046009902F07BF905480821C28A2046FFF7DFF90C2040342070002038BD3C14002000787047F8B50025BC
:40464000002801D0002400E01A4C002C28D0204600F0CBFC002823D0207903281CD005281CD026464036B18AA07801F061FCB078012815D10021204601F0BFFD27468037A0
:404680003868002802D00BF037F93D600020B0702079072805D007E0042000E006202071F8BD2046FFF706FD0221204600F0E0FEF8BD0000A414002010B54C22115400F099
:4046C0004CF810BD10B50446FF21FFF798F909202071A07801F052FC10BD000038B5FF216A461180002801D0002400E0084C002C0DD011460620FDF735FE6846018820462C
:40470000FFF73DFD03480068C1692046884738BDA41400206C0D002010B504468079002809D022214C200155FF212046FFF767F9204600F012F810BD10B5037902464032BF
:40474000002B03D01173092B02D003E0002100E02221117300F001F810BDFEB504460089002700902781207926464036002817D0012815D002280AD112E002AA01A9204620
:4047800001F00CFD002807D101980BF0ABF8204601F02CFD0028F0D02046FEF789FDB776254680352868002802D00BF0A5F82F606868002802D00BF09FF86F60317B002981
:4047C00019D0009800F064F8A078002100F076FF2046FFF7A9FAA07801F048F8A07800F02FFDFF212046FFF70AF90B20FFF7E2F800F068FCFEBD1F213173E2E7F8B5174692
:404800000E46054602F04CFB04003CD020460C3000F0E6FF2046062200211830FCF754FD2046062200211230FCF74EFD1648224600683946436A28469847074626702846B7
:40484000FEF7E4FD012148406070002D10D02889608028464030C1782171002E0FD169796171018AE180418A2181808A608106E00648008BC005C00F207100206080394638
:40488000204602F06EFFF8BD540D002000102E400A4610B50146002003F080F810BD10B50AF032FD10BD000000B50146FFF716FA002801D0002000E00348002802D0028945
:4048C0008A4200D0002000BDA414002038B5044680346068002806D168460AF0AFFF002801D100986060606838BD000010B5014600F086FB0128887802D0FEF791FD10BD88
:404900008C214843024940186030007F10BD00008414002070B5054604464035A87F012811D1A1788C20084A484380186030067F3046FEF739FF002805D10220A877A0785E
:40494000314601F03DF870BD8414002010B50C4CA07A002813D0FEF7D3FF0A48027F417F408B00F0B7FB012809D10020A07200F0EDFE05498989090B01D000F03BFA10BD65
:404980004015002084140020A0102E4070477047490510B5490F0B00FCF78CFE060704080C0C0F073E21FFF787FE10BD0821FFF7C3FE10BDFFF7D1FE10BDFFF7ADFE10BDB0
:4049C000F8B507460025002D01D0002600E0204E00F08AFE3046403044890021418100F08DFE304600F001FB01282BD1A00702D52846FFF723FEE00602D52846FFF76EFE86
:404A0000A00601D5FEF77CFF600601D500F014FB200602D5284600F01DF8600702D5284600F02CFA380402D52846FFF727FB780402D52846FFF714FBE00703D02146304627
:404A4000FFF7A6FF6D1C2D062D0EBCD0F8BD0000A4140020F8B5002801D0002400E0284C002C4BD025464035A878012846D1FF278820493700593E46002805D02149897A51
:404A8000890601D5878AC68A2046FEF7BFFC012834D002F009FA2A8A6179FFF74FF9009000F0F2FF00983346283081B23A46204601F0CCFFE98AA07801F0B0F91248018875
:404AC000688A124E002810D048431149FCF7B2FB0004000C01D0401C80B27080A07DC107C90F002001F076FA01E000207080288A698A484381B2A07801F010FAF8BD00001E
:404B0000A41400203C14002060112E403C0D00207102000001490968096808476C0D002070B50D460026194A0146002801D0002401E014462034002C26D0204600F060FA98
:404B400001280AD18C20484380186030007FFEF72BFE002801D101F073FE0D48006881692046884700280CD020464030817EA94202D3491B817600E086762089294602F023
:404B8000AEFE204600F05AFC70BD0000841400206C0D002070B503460088FFF785FE040013D000F022FA00280FD02079092819D02546997840352973204601F0C1FE064614
:404BC000A878012803D0AA8A02E0022070BDEA880A20424301212046FEF706FF002E01D109202071002070BD0EB5002217216B460292198100905A810120029B00990AF0D2
:404C00001BFF0EBDF8B518480024807A002822D1164E0025B089000B22E0204600F000FE1249A039401807882A462146384600F051FA012810D00E480122478305770A4960
:404C400044778A72002D01D0002000E02030002801D000F0F3FBF8BDB089000B641CE4B20028DAD1F8BD000040150020A0102E408414002010B50088FFF716FE002809D01E
:404C8000014640310C460978082905D00B2903D00C2010BD022010BDFFF728FC002801D009202070002010BD70B503460088FFF7FBFD040008D0254640352878082805D076
:404CC0000B2803D00C2070BD022070BD8420005910220830991CFCF7EEFA2046FFF7D8FA2878082804D02046FFF78AFC002801D00A202870204600F0A1FB002070BD000061
:404D000010B50C46002121700088FFF7CDFD03000BD000F06AF9002807D00948F121807A0840C00603D4112010BD022010BD022020701A8A1889002102F04CFE002010BDC2
:404D40003C140020F8B50F46002100910088FFF7ABFD040012D000F048F900280ED0E079410641D4617E02264A07002A08DB8907402500291ADA2843E07135E00220F8BDF8
:404D800002F08EF80021017021894180A1898180217E4170E189C1803E7005460178134802F0F2FA284602F0B9FD1DE0204600F02DF9012806D068460AF030FD002803D04F
:404DC0000720F8BD2A20F8BDE07900992843E071204601F0DFFD607E0421304360760448C28A2046FEF700FE0020F8BD1D0400003C1400203EB500220F236C460292238123
:404E000000910190628169460EC900200AF014FE3EBD0000F8B50F46054600F08FFA040025D003202071254600264035EE76E6702046FFF7B5F900F0DDFF0920FEF7BAFDE2
:404E4000A07800F001FD0121204600F011FB2E706E70AE703A4600212046FFF7CFFC0649887B401C8873A078FFF754FEF8BD284601F084F8F8BD00008414002010B5002853
:404E800001D0002000E0094800280DD0014640310A464978022901D100215170807DC107C90F002001F096F810BD0000A414002070B503460D460088FFF7F6FC04000BD032
:404EC00000F093F8002807D01248F121807A0840C00603D4112070BD022070BD20464030418A008A491C41430804C10C5888884201D2122070BD20822079072802D12046D4
:404F0000FFF7D8F8022028702089002102F08AFD002070BD3C140020016A491C016204D1817E491C4906490E81767047C169491CC16104D1C17E491C4906490EC176704773
:404F4000F0B5074687B003A8009005A800260D460190002F01D0002400E01B4C002C05D06846FCF7FFF9002803D00BE0022007B0F0BD68460089C00704D18C22002120469D
:404F8000FCF7A2F9114829460068826820469047050016D1A77066762746267140373E70204600F019F8204601F01CF9084820820848BE77807AF121084000D001202075E0
:404FC000E682E8B2D3E70000A41400206C0D0020B80B00003C140020002101628176C161C17620300177417770470079002805D0012803D0022801D001207047002070472A
:405000004030807F002800D00120704740300078002807D0012805D0052803D00E2801D0012070470020704710B5807801F05AF8002800D0012010BD10B500F087FB03492D
:405040008989090B01D0FFF7D5FE10BDA0102E4070B5054604464035A87F002825D1FF206075A0788C21154A484380186030417F8C23491CC9B24177A0785843104B801899
:40508000DB896030994201D300214177A0788C21484380186030467F0677A1783046FEF783FB002802D00120A87770BD0220A877A078314600F084FC70BD0000841400202C
:4050C0005C1500200020401C0006000EFBD0002070470000F0B515468207920F85B0000A02926A469080002D01D0002400E0524C002C28D0084600F093FB0746684680889D
:4051000000280BD00298012843D0022841D003280BD03D20005D012870D087E04748381801882046FFF72BF880E00020029002A80AF054FB002807D03D20005D012878D1B4
:405140002046FFF7E9FE74E06846029E8388324600213846FDF718F83848381801882046FFF70DF8284600F0A1FA01AA21463046FEF7FAFD002806D030460AF09FFB3D2098
:405180004C21085528E0F5773146204601F090F94FE0002000902089039068460AF00EFB002802D0002005B0F0BD6846009E8388321D00213846FCF7E7FF204838180188B3
:4051C0002046FEF7DCFF284600F070FA25464035287E00280CD103E02046FFF773FA28E001AA21463046029BFEF7F6FD002806D030460AF059FB3D202873EDE713E002984A
:40520000FEF7CCFF01460398307003980901000A0843707068468088B070000AF0703046FFF7E2FC05E02046FFF776FE284600F03DFA0120B7E70000A414002000102E4069
:4052400010B5074A917B002901D0491E91730021FFF776FE002801D0002010BD012010BD84140020F8B5074606464037B87F00282DD0B0788C210090484323494518603529
:40528000287F0099FEF7A5FA01281ED0287F401CC4B21E48C089A04200D800240020B877FF276F772F77A87702460146009800F0F3FC717DFF2903D0304600F054FF777549
:4052C00001F0BEFA0025114F19E00320B877F8BD00200090224669463046FEF713FF0099002904D0FF231A463046FEF78AFA641CF889E4B2A04200D800246D1CEDB2F88917
:40530000A842E5D8F8BD0000841400205C15002010B502460021084B03E0002901D0002000E018460479944204D0491C0906090EF3D0002010BD0000A414002000B50120FC
:40534000FFF7E6FF00BD10B5044601F0A9FD2189018080346168416061682831816002F097FA10BDF7B50646087982B00C46092807D0A078F0770846FFF742FE012806D04C
:4053800010E030460AF0AEFA022005B0F0BDA1788C20294A484380186030007FFEF704FA012810D0A078FEF7EDFD01280BD037780121304601F0F0F925462035062F38D0E2
:4053C0000B2F0FD107E06846027C21463046FEF7C9FE0D20D9E72046FEF718F8012801D1002028772046FFF781FA054604AA21463046FEF726FD01205F2108556946097CDE
:40540000002001910090A07833463A46294600F081FA69460A7CA0780323294600F0C2FDA0782946FDF722FF30460AF05BFA0020ABE70120D5E700008414002010B50246F9
:405440004032937F0021002B03D1927E002A00D00121064A927A002A00D000210279092A00D10121807800F0D5FD10BD4015002070B50C460546FDF7C9FF00280BD1012C99
:4054800006D92879092806D02846FFF7CDFD0446002C02D004E0012402E0A87DC007FAD1A87DC107C90F204600F094FD70BD0000012807D0082804D104480282034808301C
:4054C0000180704701488038FAE70000A0102E40014908817047000000102E4010B50446FF20F130012C01D1FF20D530002200F0C3FD044A108A044980B2A04308801082C4
:4055000010BD000000102E40400D0020034B198A034A89B2814311801982704700102E40400D002010B50446012802D0082C07D102E0FF20D53001E0FF20F13000F094FDEA
:405540000348018A034A89B221431180018210BD00102E40400D0020034B198A034A89B2014311801982704700102E40400D0020F8B505460120A84086B214460F46012207
:4055800031467C2000F078FD3A463146782000F073FD6078267800020643E078A2780002024360792379000203430C2045430D2080010549281844182680001D4418228040
:4055C000001D40180380F8BD00102E40CB065B0E0343480901021943D00108430121C902084301490881704780142E404278037812021343084A1382C37880781B0218433F
:40560000908248780B78000203431383C8788978000201439183704700142E40024A1080000C90801181704700142E40044A002180180288491C89B21029FAD370470000B2
:4056400000102E40024A10820148803081817047A0102E4010B5054A1082084600F030FD024A0021A03A8018018010BDA0102E4010B50B46044600F005F819462046FFF79A
:40568000E1FF10BD024A10820148803001817047A0102E4010B504490882FF20002220211D3000F0E9FC10BDA0102E40000202494D3008807047000000102E4010B5084B45
:4056C000074C0202A03B0029208202D075321A8010BD04490020088088807632F7E70000A0102E40201A2E4000B5034908884880FFF70CFF00BD0000400D002000B5024801
:405700004088FFF729FF00BD400D002010B5FCF7E9FE10BD014952200880704700102E4000210170704700000748808806492039098B884201D8081A03E00022D243101A8F
:40574000401880B27047000020112E400148008AC0B27047A0102E4070B5084C049D2082074804890548603006880E8001891180808818806007400F287070BDA0102E404A
:40578000E0112E400148008970470000C0102E4000280FD00D4A108B0870000A4870908B8870000AC8700948203000880871000A48717047064A10880870000A48709088E5
:4057C0008870000AC8701089F0E7000040102E40C0112E400148008A70470000001A2E40064B1A8999891B8A0270120A42708170090AC1700371190A4171704760102E40E2
:40580000012904D00549098BC90B017070470349403109898907C90FF7E7000000102E4001484089704700005C150020044A10820448028980894843101880B270470000C3
:40584000A0102E405C1500208C21074B414300B5C918FF2260314A770A7700228A77114600F01AFA00BD0000841400208C225043074A10B58018FF21603041770177002189
:4058800081770448418EFF201D3000F0EDFB10BD841400203C14002000B5044A1082034880308088022200F003F800BDA0102E4010B50023884201D8081A03E00024E4433F
:4058C000201A4018044980B2884201D8824200D90123184610BD0000FF7F000070B55478157824022543D47888232602947834435679127936023243002900D098230449D4
:4059000008820348A038181805808480028170BDA0102E40FFB581B014460D4607460A9E0B9BFFF783FF002E0AD0009333460021049AFCF7B9FC05484019C45505B0F0BDF2
:405940000021049AFCF796FCF5E70000440D002070B502460448054D808808242C800B460021FCF787FC70BD5C150020A0142E4010B52124024664010449532008801023B1
:4059800000212046FCF776FC10BD000000102E40417802780902044B0A431A83C1788078090208439883704760142E40034A1082802001430148803001817047A0102E40EB
:4059C000054A1082044A6032908B0009000108439115084390837047A0102E4030B500210F4B0A46012809D0032802D005280AD107E04021198102210A2204E004210C227E
:405A000001E004210D221882054C20342088C0B205460D42FAD022800021198230BD000080142E4010B5044607480482074801808280032189030820FFF774FD20020249C5
:405A40007530A039088010BDA0102E40201A2E40054A1082044A60321183000202494B30A039088070470000A0102E40054A491E1082044A60321183000202494C30A039DC
:405A800008807047A0102E400349884200D908460249088070470000FF0F000060112E400349884200D908460249888070470000FF0F000060112E408823002900D0982342
:405AC000084908820748A038191808881070000A507088889070000AD07008891071000A50717047A0102E4010B51446024606480B46C0880021FCF7A3FB012C02D1034941
:405B00005420088010BD00005C15002000102E40064A11880170090A417091888170090AC1700349542008807047000080142E4000102E400121814010B589B200227C2001
:405B400000F09AFA10BD0000FEB5FF210120FFF7C5FCFF210820FFF7C1FC3020FFF7D6FC3F48802101803F483F4D00784007400F02286FD001286BD100202880002211463D
:405B80000320FCF7EFFB394E3949B08D8882384F002420373248A0300482308F38822046FFF764FE641C2406240EF3D0B08F38832E48103000F052F971693069019100906D
:405BC00069464879C021084369464871684600F06DF900F055F82548214C40304188A03421838188A1831E49C088C0318880708E38802048002606823920FFF7ADFC184FD5
:405C0000532038801C490720088354203880E020FFF70CFDE820FFF709FDF020FFF706FD0020FEF781F813488682282101838015A0810F48403086815B20388009480078AC
:405C40004007400F022807D0012801D10B482880FEBDFFE7032090E70848C01CF7E7000000102E405C150020001F2E403C140020C0112E40001A2E4080142E40E02300007A
:405C8000044800218183018302497420603908807047000060102E40074B1882064B6033988B00090001084399158843002A01D11021484098837047A0102E40F3B50D221D
:405CC00084B0920100924A780B78120213430393CA788B78120213434A790979FF20120211431A4A8C46918B9E460291118B01911649742260390A80154900220F7821E074
:405D00000121124B9140009C603BE3181D8889B21C881B88039E6E407546654064462E435C4026430CD1029B194209D00199D140CB070499DB0F8B4202D1104606B0F0BDE0
:405D4000521CD2B29742DBD8F8E7000060102E407C14002030B50949FF208C8B084A00210125137805E02A468A40224204D0491CC9B28B42F7D830BD084630BD60102E40CE
:405D80007C14002010B50446E020FFF74FFC20782246401CC3B20021E020FCF711FA10BD42790021012A02D901214171090342790A430179042914D049001143827B032A0A
:405DC00001D8D2001143427B52010A43817909021143012252031143054A118300889083704711460122920211430222E5E7000000102E4000B50120FFF788FB0149412023
:405E0000088000BD00102E4000B50120FFF7A4FB01494020088000BD00102E40024A10820148603081817047A0102E4010B5044C208204488180028183815143018210BDCA
:405E4000A0102E40A0132E40034B1882024820388180028070470000A0102E404178027809020A4306490A80C2788378120213438B80427900791202104308817047000018
:405E8000C0112E404178027809020A4306490A81C2788378120213438B81427900791202104308827047000060102E40417802780902084B0A431A83C178827809020A43D3
:405EC0009A8341790079090208430249203108807047000040102E404178027809020A4306498A80C2788378120213430B814279007912021043888170470000001F2E406C
:405F000010B50446E820FFF791FB20782246401CC3B20021E820FCF753F910BD024A10820248818370470000A0102E40001A2E40024A10820148603081807047A0102E40AC
:405F400010B5044688000521FBF784F804490C8204498880200202497230A039088010BDA0102E40001A2E4003490882000202497330A03908807047A0102E400349088211
:405F8000000202497030A03908807047A0102E4003490882000202497130A03908807047A0102E40F8B505461C4617460E46084600F086F8054AB90021431582034AA03AD3
:405FC00080180180024880194455F8BDA0102E40490D002030B50E4C238A01251A46012804D0022804D000290BD00CE02A430AE0002908D12A4322825008400020821A4662
:4060000001E05A0852009A4200D0228230BD0000001A2E40054A1082044A6032908B4023984389010143918370470000A0102E40044A118A0223002801D0194300E0994316
:4060400011827047001A2E4000B5064A1082054860300181002901D0012000E00020FFF7E7FF00BDA0102E40024A801802880A430280704700102E4070B5084BC5182C880B
:406080000023080003D104E040085B1C9BB2C607FAD08C439A4022432A8070BD00102E40024A1018405C8007800F7047490D0020024908820148803080897047A0102E40F8
:4060C0008000FF3041307047044B02461B8AFF208B4202D902484018805C70475C150020440D0020024908820148803000897047A0102E40174902460B680020002B08D124
:406100000A605207520F012A04D0022A10D0086012207047112292018A80CA80032252020A810122D2024A8140228A8105220DE0092252028A80CA80012252030A81032283
:40614000D2024A81012252028A810422CA810A82704700005C1500200A4600B501461046FFF7B2FF00BD38B50C46054600216846009109F053FB002804D1009928464C70C2
:4061800000F0FAFB38BD10B5044680780021FFF745FE01212046FFF76BF910BD436E002B0CD00B60014660318B781370826E4266CA788A700021816608467047FF207047BD
:4061C00010B50346446E6033002C04D0846E002C04D0FF2010BD41669A7001E08166DA70002010BD0021416681667047406E002801D000207047FF20704770B50446C0795C
:406200000D46810610D5DF210840E07100F048FE0570218941804034218A8180618AC180A18A018101F070FA70BD000010B50446FEF7E6FE01280AD1A1788C20054A4843E4
:4062400080186030007FFDF7AFFA012801D000F0F7FA10BD84140020F8B50E460446FDF7D5F801282BD02079042801D0072825D1F079B77900020743A0783946FFF70CFB16
:4062800025464035012820D03A46711C204600F084FA02212046FDF7BEFEA07DC107C90F0220FFF797FE688A002807D0E87E002804D1032109020820FFF734F9F8BD0122BB
:4062C0002421204600F010FBF8BD282028732046FEF7F8F9F8BD70B50D460646FDF730FE002852D120213046FDF789FB3446687840346073E87820220002E081A9780843ED
:40630000E0816879010228790843218A814203D0F1791143F1712082E8790102A8790843618A814203D0F1791143F1716082687A0102287A0843A18AE180814203D0F17978
:406340001143F171A082A08A218A8000FAF782FE401E618A80B2814200D9608201213046FDF75CFEE87AA97A000201430022304600F02AFB608A002807D0E07E002804D1E4
:40638000032109020820FFF7CDF870BDF8B50C4605460027FDF73AF8012847D0284EB07AC00709D02846403000900078002806D0102803D01F212CE01A212AE00127284671
:4063C000FEF784FA002823D02E4680360822611C7068FAF770FF7068617A20300172A17A417270682146183008220B31FAF763FF21462846042213313430FAF75CFF394614
:406400002846FEF71FF8002810D1002F0FD012E007210322284600F067FAF28A08212846FDF7E2FA11212846FDF7FBFDF8BD06212846FDF7F9FD009801210176F8BD000044
:406440003C14002010B5FEF73DF810BD38B504460020009020790D46042801D007281BD12046FCF7D3FF012817D0684609F0D6F9002811D10C486A78807A00991040F1221E
:4064800010402075607E082210436076204600F0B3F92046FDF70BFE38BD08222421204600F022FA38BD00003C14002070470000F3B581B004460298FEF7BEF80646204655
:4064C000FEF793FD002828D0162E04D32046029900F0F7F821E025464035287800220300FBF7E8F80E1414140808141414080808080808140298154B017800201F5C8F42CB
:4065000004D0401C0728F9D3002A0AD00F49B00008310A58204602999047029809F0CEF9FEBDA078FFF72AFD002301223D212046FDF706FF3D2028732046FFF724FE029854
:4065400009F0BCF92046FEF708F9FEBD0422010070B50D460021002801D0002400E00C4C002C14D020464030C177807F032802D12046FEF777FE2046FFF758FE162D04D28B
:406580000449A800095820468847FEF79BFD70BDA41400206422010010B5014640310C4609780E2903D1FDF7D1FF0120207610BD10B54021095C0F2901D1FDF7EAFF10BD55
:4065C0004021095C0F2902D1002120304177704738B5044600220E4800920D46807AF1210840C0060ED52046FEF710FD012809D0684609F013F9002803D12046009900F051
:406600005DF938BD2946204600F05BF838BD00003C14002010B51021FDF7F1F910BD10B54978FDF7DFFE10BD10B5FDF7BAFF10BD012120304177704710B54021095C0C29ED
:4066400001D1FDF7C3FF10BD10B54021095C0D2901D1FDF7B7FF10BD70B5044600790D46052803D0062801D0082802D12046FDF7CBFE68784C21085509212046FDF7D4FC5D
:406680002046FFF780FD2046FCF7C0FE0128A07805D0FFF773FC2046FEF7D0FE70BDFFF777FCF8E710B50446FF21FDF7A8F916214C200155A078FFF761FC2046FEF7BEFE92
:4066C00010BD70B50C460546FEF79AFC002802D02078687570BD21782846FFF744FD70BD70B5054648780C46032802D12846FDF796FE6078122803D110212846FDF77FF912
:4067000003482146006842682846904770BD00006C0D0020704738B5044600200D46009004212046FDF76BF968782076E8780002A081A9780843A08168790002E08129794A
:406740000843E081607E04210843607680070CD4684609F063F800281CD12046009900F019F9607E022108436076E079410611D5BF210840E07100F093FB00210090017009
:4067800021894180A1898180217E4170E189C18001F0C4F838BD7047704770B50446C07815460A4600280AD00020E070C1B2A078FFF794F8A0782946FFF74AF970BD012059
:4067C000F3E770B50546042008700C468420415908222031601CFAF76EFD29462046042238310930FAF767FD0D2229462046FEF7B9FD002070BD000070B5054609200C46F7
:40680000087008220021601CFAF75EFD287D607004480922C07AA07029462046FEF7A2FD002070BD3C1400200B4610B501460B20187001221846FEF795FD002010BD00006C
:40684000FEB50024164F03E0002C01D0002500E03D462846FFF7CAFC00281BD15F20405D002817D16A4601A92846FFF797FC002810D1019869460A7806782946FEF772FD95
:40688000022E07D1A8780121FFF7C4FB09212846FDF7CAFB641C2406240ED5D0FEBD0000A414002010B50B46122119708178D977014601221846FEF755FD10BD10B50B4667
:4068C000132119708178D97706490989C90603D1C18A40221143C182014601221846FEF741FD10BD20112E4038B50546002000900C46684608F092FF002801D0072038BDDD
:4069000000980D210170447002222946FEF72AFD002038BD0B4610B501460520187001221846FEF71FFD002010BD0B4610B501460620187001221846FEF714FD002010BDA0
:4069400038B5054600200090684608F067FF002801D01F2038BD009C022020704C20405D6070A878E0772846FFF70DFC022229462046FEF7F7FC38BD10B50B46072119704E
:406980008178D977014602221846FEF7EBFC002010BD000010B50B460A49044608880C221A704A795A709870000AD870C8881871000A5871062221461846FEF7D3FC00209D
:4069C00010BD00003C140020F8B50446403417460E460546E289617B8078FFF735FA002F0DD100F061FAE2896979FDF7A7F9FFF757F8608A002800D00120FFF719FBE38899
:406A0000A08A984200D90346628A218AA878FFF70DFAE089E188C0080A30081881B21920C001814200D90146A878FFF781FAA8783146FFF71BF8A87DC107C90F0220FFF76A
:406A4000C9FAF8BD00B500F017F800BD10B504468818C018FF302D300649FAF7FBFA4034401C228A81B28A4200D211465000401AE08210BD7102000040184008704770B579
:406A800005461446100702D5A8B2FDF799FFE00702D0280CFDF70CF870BD70B5044660C8FCF728FCFBF75AFA2089C01F0300FAF701FE0C07140C181B1E0C0C210C110D0CE9
:406AC000294630466289FFF7DAFF70BD284600F0C1FB70BDFDF73AFF70BD2846FCF76CFD70BDFCF70DFF70BDFDF750FF70BDFDF74EFF70BDE8B2FEF785F870BDF3B5002126
:406B000087B005910E46039100910191029192490C8920400490600713D58F484030058A0498400708D50595A80803D1FBF77CFA012801D101200390294600220420FEF7C2
:406B4000B7FC8648210700907CD58348A03001898348CA0704D0428907231B029A43428142890D460A43428100220820FEF7A0FC0498000766D57B480089029000200690C9
:406B8000009F77482E466906019036D50298002833D00198C17E00292FD14178022902D0807801280DD1A804400F062814D0012812D0B87DC107C90F0020FFF70BFA012054
:406BC00006906948007800280DD00120FFF730FA65480121417009E0B87DC107C90F0220FFF7F8F9EDE70698012806D15D49E031088A0322120290430882E80619D5019883
:406C00004178022902D0817801290FD1029900290CD0C07E002809D1FEF786FD022805D8B87DC107C90F0220FFF7D4F90220FBF7AFFC1020854303D1FBF7F6F9012801D11B
:406C400001200390E00731D04348203007880498C0070BD03804064302213846884303D1FBF7E2F9012801D101200390B80718D50220FBF78DFC3A4D4035A87CC00710D07F
:406C8000687D00280DD0287DE97C884209D2287D36498001096840181130FFF71DF900206875394600220120FEF702FCE00605D50120FBF75DFC1020FEF70AFCA0062CD5D0
:406CC000284801890191808B009D8006C70FFEF759FD274908800120FBF74AFC2549002008700199002915D0002F13D11E4F78700120FFF79DF9E88A01060BD53978002972
:406D000008D1C107C90F0120FFF764F9E88A80218843E8822020FEF7DBFB600602D54020FEF7D6FB072069460881059800900196049848810398002807D069460EC9089868
:406D4000002804D0002008F053FE09B0F0BD002008F072FEF9E7000000102E40A4140020E414002000112E403C0D0020580D00204E0D0020360D0020F0B587B0054605A853
:406D80001E461746019100900C9C04AB06AA02A903A800F0C8F82846FEF7EAFD21463046FEF7D6FD6846017A0398FEF737FC05A904A8FEF71BFC6846027E21463846FEF79A
:406DC00005FC07B0F0BD000070B50548C4782046FCF74BFE05462046FDF7E2F8284370BD8414002070B5054884782046FCF745FE05462046FDF7ECF8284370BD841400202C
:406E0000F8B5069E1F463478042C17D3231FDDB23B460095FFF7B0FF3819001FFEF7B8FD0520FEF7DBFD0446012229460798FEF75BFE3570E00701D00020F8BD1F20F8BD4F
:406E400070B51C4615460E46FEF792FD29463046FEF77EFD0320FEF7C1FD012229462046FEF742FE1F2070BDF8B5069D089E2C780094FFF781FF0120FEF7B0FD07460022BE
:406E800021460798FEF730FE3046FEF741FE241D2C70F80701D00020F8BD1F20F8BD0000004870477015002008B56A4600210B20FBF758FA6846007808BD000010B50B4CE1
:406EC000094923460833A160002142189278002A00D05A54491CC9B20429F6D3FF21A0689A314843A06010BD040302018414002070B5059C049D2070060A6670060CA67086
:406F0000000EE0704806D101400E0843207104221946601DFAF7CFF92046042229460930FAF7C9F970BDF8B5079C0E46E178069D09020160A778394309020160677839436C
:406F4000090201602778394301602079611D4006400E30702079C009107004221846FAF7AAF92146042209312846FAF7A4F9F8BD10B5FEF707FC094A916848400849096819
:406F800048408108C3084409414063405940C30F59404008C9070843906010BD84140020500D0020704700207047FF20704710B5400606D5FF210020FDF72CFF0220FCF76D
:406FC000F9FC10BD70477047704700207047704700207047002070470020704700207047002070477047FF207047704701207047704700207047002070470000014A926823
:4070000012691047640D0020014A926812691047640D002010B5012200F016F810BD000010B5054802780121002A017002D10120FAF758FE002010BD700D002010B500229D
:4070400000F002F810BD0000F8B5204D0F4629781646012904D02978022901D01120F8BD0C2148431A494418E078A178884201D31220F8BDF9F7EEFE62780C2361685A43B4
:4070800051188CCF8CC1E178601C491CE1706178491CC9B20170A278914201D1002101706868401C68602878012803D0F9F7CEFE0020F8BD02202870F9F7C8FE002E03D027
:4070C0000020FAF70FFEF3E70120FAE7700D0020F016002010B51148002101704160C0220F48FAF7F1F80E4890220021C030FAF7EBF8182200210B48FAF7E6F80948102183
:4071000081700C21817306494160C03101610649816006494161FAF7CDFD10BD700D0020A0150020F01600209B6A00002D820000F8B50025114C01262F462078002811D099
:4071400001280FD0022802D0032813D111E000F017F8F9F77FFE6068002800D12670F9F775FE07E02078002806D02078012803D000E02770002DE0D00020F8BD700D00200E
:40718000FEB51F4D1F4E0027FF2400200C2141438919C978002901D0044602E0401C0228F4D3FF2C2AD0F9F755FE0C204443A41921780C2260685143081801460EC9029304
:4071C00001920091076047608760E078401EE0702078401CC0B22070A178884200D127706868002802D06868401E6860F9F72EFEA1680029C8D068468847C5E7FEBD0000A5
:40720000700D0020F016002010B5830A082B02D008F018FC10BD00F0D5F810BD10B50C460146207800F0D4FC0028204603D000F0AEFF002010BD00F04AFC1F2010BD10B529
